{
  "contractName": "Contract",
  "abi": [
    {
      "inputs": [],
      "stateMutability": "nonpayable",
      "type": "constructor"
    },
    {
      "inputs": [
        {
          "internalType": "uint256",
          "name": "",
          "type": "uint256"
        }
      ],
      "name": "Dr_ids",
      "outputs": [
        {
          "internalType": "address",
          "name": "",
          "type": "address"
        }
      ],
      "stateMutability": "view",
      "type": "function",
      "constant": true
    },
    {
      "inputs": [
        {
          "internalType": "uint256",
          "name": "",
          "type": "uint256"
        }
      ],
      "name": "Patient_ids",
      "outputs": [
        {
          "internalType": "address",
          "name": "",
          "type": "address"
        }
      ],
      "stateMutability": "view",
      "type": "function",
      "constant": true
    },
    {
      "inputs": [
        {
          "internalType": "uint256",
          "name": "",
          "type": "uint256"
        }
      ],
      "name": "RecordHashes",
      "outputs": [
        {
          "internalType": "string",
          "name": "",
          "type": "string"
        }
      ],
      "stateMutability": "view",
      "type": "function",
      "constant": true
    },
    {
      "inputs": [
        {
          "internalType": "uint256",
          "name": "",
          "type": "uint256"
        }
      ],
      "name": "mshop_ids",
      "outputs": [
        {
          "internalType": "address",
          "name": "",
          "type": "address"
        }
      ],
      "stateMutability": "view",
      "type": "function",
      "constant": true
    },
    {
      "inputs": [],
      "name": "getAdmin",
      "outputs": [
        {
          "internalType": "address",
          "name": "",
          "type": "address"
        }
      ],
      "stateMutability": "view",
      "type": "function",
      "constant": true
    },
    {
      "inputs": [
        {
          "internalType": "address",
          "name": "_newdr",
          "type": "address"
        }
      ],
      "name": "addMshop",
      "outputs": [],
      "stateMutability": "nonpayable",
      "type": "function"
    },
    {
      "inputs": [
        {
          "internalType": "address",
          "name": "shopID",
          "type": "address"
        }
      ],
      "name": "delMshop",
      "outputs": [],
      "stateMutability": "nonpayable",
      "type": "function"
    },
    {
      "inputs": [
        {
          "internalType": "address",
          "name": "id",
          "type": "address"
        }
      ],
      "name": "isMshop",
      "outputs": [
        {
          "internalType": "string",
          "name": "",
          "type": "string"
        }
      ],
      "stateMutability": "view",
      "type": "function",
      "constant": true
    },
    {
      "inputs": [
        {
          "internalType": "address",
          "name": "_newdr",
          "type": "address"
        }
      ],
      "name": "addDoctor",
      "outputs": [],
      "stateMutability": "nonpayable",
      "type": "function"
    },
    {
      "inputs": [
        {
          "internalType": "address",
          "name": "docID",
          "type": "address"
        }
      ],
      "name": "delDoctor",
      "outputs": [],
      "stateMutability": "nonpayable",
      "type": "function"
    },
    {
      "inputs": [
        {
          "internalType": "address",
          "name": "id",
          "type": "address"
        }
      ],
      "name": "isDr",
      "outputs": [
        {
          "internalType": "string",
          "name": "",
          "type": "string"
        }
      ],
      "stateMutability": "view",
      "type": "function",
      "constant": true
    },
    {
      "inputs": [
        {
          "internalType": "address",
          "name": "id",
          "type": "address"
        }
      ],
      "name": "isPat",
      "outputs": [
        {
          "internalType": "string",
          "name": "",
          "type": "string"
        }
      ],
      "stateMutability": "view",
      "type": "function",
      "constant": true
    },
    {
      "inputs": [
        {
          "internalType": "address",
          "name": "_newpatient",
          "type": "address"
        }
      ],
      "name": "addPatient",
      "outputs": [],
      "stateMutability": "nonpayable",
      "type": "function"
    },
    {
      "inputs": [
        {
          "internalType": "address",
          "name": "iD",
          "type": "address"
        }
      ],
      "name": "getPatInfo",
      "outputs": [
        {
          "internalType": "string",
          "name": "",
          "type": "string"
        }
      ],
      "stateMutability": "view",
      "type": "function",
      "constant": true
    },
    {
      "inputs": [
        {
          "internalType": "address",
          "name": "pat_id",
          "type": "address"
        },
        {
          "internalType": "string",
          "name": "_patInfoHash",
          "type": "string"
        }
      ],
      "name": "addPatInfo",
      "outputs": [],
      "stateMutability": "nonpayable",
      "type": "function"
    },
    {
      "inputs": [
        {
          "internalType": "string",
          "name": "_recHash",
          "type": "string"
        },
        {
          "internalType": "address",
          "name": "_pat_id",
          "type": "address"
        }
      ],
      "name": "addMedRecord",
      "outputs": [],
      "stateMutability": "nonpayable",
      "type": "function"
    },
    {
      "inputs": [
        {
          "internalType": "address",
          "name": "id",
          "type": "address"
        }
      ],
      "name": "viewMedRec",
      "outputs": [
        {
          "internalType": "string",
          "name": "",
          "type": "string"
        }
      ],
      "stateMutability": "view",
      "type": "function",
      "constant": true
    }
  ],
  "bytecode": "0x608060405234801561001057600080fd5b50600d8054336001600160a01b0319909116811790915561003e90600090610043602090811b61079d17901c565b610147565b61004d82826100c4565b1561009f5760405162461bcd60e51b815260206004820152601f60248201527f526f6c65733a206163636f756e7420616c72656164792068617320726f6c650060448201526064015b60405180910390fd5b6001600160a01b0316600090815260209190915260409020805460ff19166001179055565b60006001600160a01b0382166101275760405162461bcd60e51b815260206004820152602260248201527f526f6c65733a206163636f756e7420697320746865207a65726f206164647265604482015261737360f01b6064820152608401610096565b506001600160a01b03166000908152602091909152604090205460ff1690565b610c3b806101566000396000f3fe608060405234801561001057600080fd5b506004361061010b5760003560e01c80636e9960c3116100a2578063c979783f11610071578063c979783f1461021e578063cc57291414610231578063ce99814614610244578063e4ed5cdd14610257578063f1a1d7d51461026a57600080fd5b80636e9960c3146101d4578063720d5b4b146101e55780638db62d62146101f8578063be9568731461020b57600080fd5b80634780468f116100de5780634780468f1461018857806358dae14f1461019b5780635ae3e018146101ae5780636d263ceb146101c157600080fd5b806311f67285146101105780632ebac08d146101255780632f4a4dcb146101555780633c52554b14610168575b600080fd5b61012361011e366004610a76565b61027d565b005b610138610133366004610ac4565b610306565b6040516001600160a01b0390911681526020015b60405180910390f35b610138610163366004610ac4565b610330565b61017b610176366004610add565b610340565b60405161014c9190610aff565b610123610196366004610add565b6103ec565b61017b6101a9366004610ac4565b61042a565b6101236101bc366004610add565b6104d6565b6101236101cf366004610add565b610508565b600d546001600160a01b0316610138565b61017b6101f3366004610add565b610568565b61017b610206366004610add565b6105d1565b61017b610219366004610add565b610622565b61013861022c366004610ac4565b61062f565b61017b61023f366004610add565b61063f565b610123610252366004610add565b610666565b610123610265366004610add565b610698565b610123610278366004610b54565b6106ca565b6001600160a01b0382166000908152600560209081526040909120825190916102aa91839185019061091e565b50600980546001810182556000919091527f6e1540171b6c0c960b71a7020d9f60077f6af931a8bbf590da0223dacf75c7af0180546001600160a01b0319166001600160a01b03851617905561030160028461079d565b505050565b600b818154811061031657600080fd5b6000918252602090912001546001600160a01b0316905081565b6009818154811061031657600080fd5b6001600160a01b038116600090815260066020526040902080546060919061036790610ba2565b80601f016020809104026020016040519081016040528092919081815260200182805461039390610ba2565b80156103e05780601f106103b5576101008083540402835291602001916103e0565b820191906000526020600020905b8154815290600101906020018083116103c357829003601f168201915b50505050509050919050565b6103f7600033610819565b61041c5760405162461bcd60e51b815260040161041390610bdd565b60405180910390fd5b61042760018261079d565b50565b600a818154811061043a57600080fd5b90600052602060002001600091509050805461045590610ba2565b80601f016020809104026020016040519081016040528092919081815260200182805461048190610ba2565b80156104ce5780601f106104a3576101008083540402835291602001916104ce565b820191906000526020600020905b8154815290600101906020018083116104b157829003601f168201915b505050505081565b6104e1600033610819565b6104fd5760405162461bcd60e51b815260040161041390610bdd565b61042760018261089c565b610513600033610819565b151560011461055d5760405162461bcd60e51b815260206004820152601660248201527513db9b1e4810591b5a5b8810d85b88111bc8151a185d60521b6044820152606401610413565b61042760028261079d565b6060610575600283610819565b6105b45760405162461bcd60e51b815260206004820152601060248201526f4f6e6c7920666f7220446f63746f727360801b6044820152606401610413565b50506040805180820190915260018152603160f81b602082015290565b60606105de600383610819565b6105b45760405162461bcd60e51b815260206004820152601560248201527404f6e6c7920666f72204d65646963616c2053686f7605c1b6044820152606401610413565b6060610575600183610819565b6008818154811061031657600080fd5b6001600160a01b038116600090815260056020526040902080546060919061036790610ba2565b610671600033610819565b61068d5760405162461bcd60e51b815260040161041390610bdd565b61042760038261079d565b6106a3600033610819565b6106bf5760405162461bcd60e51b815260040161041390610bdd565b61042760038261089c565b6106d5600133610819565b15156001146107265760405162461bcd60e51b815260206004820152601760248201527f4f6e6c7920446f63746f722043616e20446f20546861740000000000000000006044820152606401610413565b6001600160a01b03811660009081526006602090815260409091208351909161075391839186019061091e565b50600a80546001810182556000919091528351610797917fc65a7bb8d6351c1cf70c95a316cc6a92839c986682d98bc35f958f4883f9d2a80190602086019061091e565b50505050565b6107a78282610819565b156107f45760405162461bcd60e51b815260206004820152601f60248201527f526f6c65733a206163636f756e7420616c72656164792068617320726f6c65006044820152606401610413565b6001600160a01b0316600090815260209190915260409020805460ff19166001179055565b60006001600160a01b03821661087c5760405162461bcd60e51b815260206004820152602260248201527f526f6c65733a206163636f756e7420697320746865207a65726f206164647265604482015261737360f01b6064820152608401610413565b506001600160a01b03166000908152602091909152604090205460ff1690565b6108a68282610819565b6108fc5760405162461bcd60e51b815260206004820152602160248201527f526f6c65733a206163636f756e7420646f6573206e6f74206861766520726f6c6044820152606560f81b6064820152608401610413565b6001600160a01b0316600090815260209190915260409020805460ff19169055565b82805461092a90610ba2565b90600052602060002090601f01602090048101928261094c5760008555610992565b82601f1061096557805160ff1916838001178555610992565b82800160010185558215610992579182015b82811115610992578251825591602001919060010190610977565b5061099e9291506109a2565b5090565b5b8082111561099e57600081556001016109a3565b80356001600160a01b03811681146109ce57600080fd5b919050565b634e487b7160e01b600052604160045260246000fd5b600082601f8301126109fa57600080fd5b813567ffffffffffffffff80821115610a1557610a156109d3565b604051601f8301601f19908116603f01168101908282118183101715610a3d57610a3d6109d3565b81604052838152866020858801011115610a5657600080fd5b836020870160208301376000602085830101528094505050505092915050565b60008060408385031215610a8957600080fd5b610a92836109b7565b9150602083013567ffffffffffffffff811115610aae57600080fd5b610aba858286016109e9565b9150509250929050565b600060208284031215610ad657600080fd5b5035919050565b600060208284031215610aef57600080fd5b610af8826109b7565b9392505050565b600060208083528351808285015260005b81811015610b2c57858101830151858201604001528201610b10565b81811115610b3e576000604083870101525b50601f01601f1916929092016040019392505050565b60008060408385031215610b6757600080fd5b823567ffffffffffffffff811115610b7e57600080fd5b610b8a858286016109e9565b925050610b99602084016109b7565b90509250929050565b600181811c90821680610bb657607f821691505b60208210811415610bd757634e487b7160e01b600052602260045260246000fd5b50919050565b6020808252600e908201526d27b7363c902337b91020b236b4b760911b60408201526060019056fea2646970667358221220885cf740eb1bd3cd4705b22c040543facfe4ab7a3a4338f00414745af60e034164736f6c634300080b0033",
  "immutableReferences": {},
  "source": "// SPDX-License-Identifier: MIT\npragma solidity >=0.4.21;\n\nimport \"./Roles.sol\";\n\ncontract Contract {\n    using Roles for Roles.Role;\n\n    Roles.Role private admin;\n    Roles.Role private doctor;\n    Roles.Role private patient;\n    Roles.Role private mshop;\n    struct Mshop {\n        string mshopHash;\n    }\n    struct Doctor {\n        string drHash;\n    }\n\n    struct Patient {\n        string patHash;\n    }\n\n    struct MedRec {\n        string RecordHash;\n    }\n\n    mapping(address => Doctor) Doctors;\n    mapping(address => Patient) Patients;\n    mapping(address => MedRec) Records;\n    mapping(address => Mshop) Mshops;\n\n    address[] public Dr_ids;\n    address[] public Patient_ids;\n    string[] public RecordHashes;\n    address[] public mshop_ids;\n\n    address accountId;\n    address admin_id;\n    address get_patient_id;\n    address get_dr_id;\n    address get_mshop_id;\n\n    constructor() {\n        admin_id = msg.sender;\n        admin.add(admin_id);\n    }\n\n    //get Admin\n\n    function getAdmin() public view returns (address) {\n        return admin_id;\n    }\n\n    function addMshop(address _newdr) public {\n        require(admin.has(msg.sender), \"Only For Admin\");\n        mshop.add(_newdr);\n    }\n\n    function delMshop(address shopID) public {\n        require(admin.has(msg.sender), \"Only For Admin\");\n        mshop.remove(shopID);\n    }\n\n    // check is Mshop\n\n    function isMshop(address id) public view returns (string memory) {\n        require(mshop.has(id), \"Only for Medical Shop\");\n        return \"1\";\n    }\n\n    //Add Doctor\n\n    function addDoctor(address _newdr) public {\n        require(admin.has(msg.sender), \"Only For Admin\");\n        doctor.add(_newdr);\n    }\n\n    function delDoctor(address docID) public {\n        require(admin.has(msg.sender), \"Only For Admin\");\n        doctor.remove(docID);\n    }\n\n    // check is Doctor\n\n    function isDr(address id) public view returns (string memory) {\n        require(doctor.has(id), \"Only for Doctors\");\n        return \"1\";\n    }\n\n    // Check is Patient\n\n    function isPat(address id) public view returns (string memory) {\n        require(patient.has(id), \"Only for Doctors\");\n        return \"1\";\n    }\n\n    //  Add patient\n\n    function addPatient(address _newpatient) external onlyAdmin {\n        patient.add(_newpatient);\n    }\n\n    // Get Patient Information => retrun pateint IPFS hash\n\n    function getPatInfo(address iD) public view returns (string memory) {\n        return (Patients[iD].patHash);\n    }\n\n    // Add patient Information to BlockChain\n\n    function addPatInfo(address pat_id, string memory _patInfoHash) public {\n        Patient storage patInfo = Patients[pat_id];\n        patInfo.patHash = _patInfoHash;\n        Patient_ids.push(pat_id);\n\n        patient.add(pat_id);\n    }\n\n    // Add Medical record to block chain\n\n    function addMedRecord(string memory _recHash, address _pat_id) public {\n        require(doctor.has(msg.sender) == true, \"Only Doctor Can Do That\");\n\n        MedRec storage record = Records[_pat_id];\n        record.RecordHash = _recHash;\n        RecordHashes.push(_recHash);\n    }\n\n    // View Medical record return IPFS hash of record\n\n    function viewMedRec(address id) public view returns (string memory) {\n        return (Records[id].RecordHash);\n    }\n\n    /*\n        Modifiers\n    */\n\n    modifier onlyAdmin() {\n        require(admin.has(msg.sender) == true, \"Only Admin Can Do That\");\n        _;\n    }\n    modifier onlyDoctor() {\n        require(doctor.has(msg.sender) == true, \"Only Doctor Can Do That\");\n        _;\n    }\n    modifier onlyPatient() {\n        require(patient.has(msg.sender) == true, \"Only Admin Can Do That\");\n        _;\n    }\n    modifier onlyMshop() {\n        require(mshop.has(msg.sender) == true, \"Only Admin Can Do That\");\n        _;\n    }\n}\n",
  "sourcePath": "C:\\Users\\Sudhan\\Desktop\\medSafe-master\\Client\\contracts\\Contract.sol",
  "compiler": {
    "name": "solc",
    "version": "0.8.11+commit.d7f03943.Emscripten.clang"
  },
  "schemaVersion": "3.4.7",
  "updatedAt": "2022-05-13T08:14:19.405Z",
  "networkType": "ethereum",
  "devdoc": {
    "kind": "dev",
    "methods": {},
    "version": 1
  },
  "userdoc": {
    "kind": "user",
    "methods": {},
    "version": 1
  }
}